:100000000C9434000C9451000C9451000C94510049
:100010000C9451000C9451000C9451000C9451001C
:100020000C9451000C9451000C9451000C9451000C
:100030000C9451000C9451000C9453000C945100FA
:100040000C9451000C9451000C9451000C945100EC
:100050000C9451000C9451000C9451000C945100DC
:100060000C9451000C94510011241FBECFEFD8E026
:10007000DEBFCDBF11E0A0E0B1E0E2EBF8E002C0EE
:1000800005900D92A835B107D9F721E0A8E5B1E0B8
:1000900001C01D92AC35B207E1F70E9478000C94C4
:1000A00057040C9400001F920F920FB60F92112468
:1000B0008F939F93AF93BF93809158019091590173
:1000C000A0915A01B0915B010196A11DB11D8093D1
:1000D000580190935901A0935A01B0935B01BF91CD
:1000E000AF919F918F910F900FBE0F901F90189519
:1000F000CF93DF93CDB7DEB7C458D1090FB6F894CC
:10010000DEBF0FBECDBF82E084BD93E095BD99EF09
:1001100097BD80936E0078945798569820982298AF
:100120002398219887E0E0E0F1E0DE01A759BF4F76
:1001300001900D928A95E1F787E0E7E0F1E0DE01BA
:10014000A059BF4F01900D928A95E1F787E0EEE04C
:10015000F1E0DE01A958BF4F01900D928A95E1F7B9
:1001600087E0E5E1F1E0DE01A258BF4F01900D927A
:100170008A95E1F700D000D000D01F92ADB7BEB78E
:10018000119687E0FE01E759FF4F01900D928A9585
:10019000E1F700D000D000D01F92ADB7BEB71196E6
:1001A00087E0FE01E059FF4F01900D928A95E1F73B
:1001B000E8968FACE897E9969FACE997EA96AFACE2
:1001C000EA97EB96BFACEB97EC96CFACEC97ED963D
:1001D000DFACED97EE96EFACEE97EF960FADEF97A5
:1001E000C158DF4F1881CF57D040C058DF4F28810A
:1001F000C058D040CF57DF4F3881C158D040CE577C
:10020000DF4F4881C258D040CD57DF4F5881C35887
:10021000D040CC57DF4F6881C458D040CE0187967C
:100220000E94120287E0ECE1F1E0DE01A35BBF4F28
:1002300001900D928A95E1F787E0E3E2F1E0DE01BB
:10024000AC5ABF4F01900D928A95E1F787E0EAE240
:10025000F1E0DE01A55ABF4F01900D928A95E1F7BA
:1002600087E0E1E3F1E0DE01AE59BF4F01900D926E
:100270008A95E1F700D000D000D01F92ADB7BEB78D
:10028000119687E0FE01E35BFF4F01900D928A9586
:10029000E1F700D000D000D01F92ADB7BEB71196E5
:1002A00087E0FE01EC5AFF4F01900D928A95E1F72D
:1002B0006C968FAC6C976D969FAC6D976E96AFAC4D
:1002C0006E976F96BFAC6F97A096CFACA097A19694
:1002D000DFACA197A296EFACA297A3960FADA39720
:1002E000A4961FADA497A5962FADA597A6963FAD52
:1002F000A697A7964FADA797A8965FADA897A99682
:100300006FADA997CE0101960E9412020FB6F89424
:10031000DEBF0FBECDBF00E010E089B190E0880FD6
:10032000892F881F990B892B09F049C04E9B09C062
:1003300040E050E068EC72E4CE0187960E948A02A9
:1003400010E0189B09C040E050E068EC72ECCE0170
:1003500087960E948A0210E01A9933C01B9B09C03D
:1003600040E050E068EC72E4CE0101960E948A02FF
:1003700000E0199B09C040E050E068EC72ECCE014F
:1003800001960E948A0200E0F894C0905801D09033
:100390005901E0905A01F0905B017894111106C068
:1003A000B701A601CE0187960E94CF020111B5CFF9
:1003B000B701A601CE0101960E94CF02AECF11E097
:1003C000CBCF01E0E1CFCF93DF9324E06202B00115
:1003D000112450E040E0C1E0D0E0DC011296ED9144
:1003E000FC91139716962C91DE0102C0AA0FBB1F39
:1003F0002A95E2F79D01DB01A40FB51FA85CBE4F53
:10040000AC913081AA2359F0232B20834F5F5F4F9B
:1004100007964430510509F7DF91CF910895209553
:100420002323F3CF8F929F92AF92BF92CF92DF920E
:10043000EF920F931F93CF93DF93CDB7DEB72E9735
:100440000FB6F894DEBF0FBECDBF09831A832B838E
:100450003C834D835E836F8388869986AA86BB869C
:10046000CC86DD86EE8627E0FE013196DC01019028
:100470000D922A95E1F727E0FE013896DC011796E8
:1004800001900D922A95E1F727E0FE017C96DC01B0
:100490001E9601900D922A95E1F727E0FE01B39692
:1004A000DC01559601900D922A95E1F7FC01AC0113
:1004B000445E5F4F01E010E0A081B1812C91368154
:1004C000B80101C0660F3A95EAF7262B2C933796B0
:1004D0004E175F0789F7FC01148E158E168E178E46
:1004E00010A211A212A213A214A215A260E02E96CD
:1004F0000FB6F894DEBF0FBECDBFDF91CF911F9135
:100500000F91EF90DF90CF90BF90AF909F908F9022
:100510000C94E301CF92DF92EF92FF92CF93DF939F
:10052000EC016A017B0120E030E0A901CB01B601BA
:100530000E943703811108C01D8EDF91CF91FF907B
:10054000EF90DF90CF90089520E030E0A901C7013F
:10055000B6010E9452041816BCF08FEF8D8FA701D0
:1005600096015F7760E070E08AE794E40E943C03C4
:100570000E94AE03611571058105910539F06E8FFA
:100580007F8F88A399A3D9CF81E0E8CF81E090E065
:10059000A0E0B0E08E8F9F8FA8A3B9A3CECFCF925B
:1005A000DF92EF92FF920F931F93FC01858D8823BA
:1005B00079F102A113A124A135A16A017B01C01A1E
:1005C000D10AE20AF30A068D178D20A131A1C016C7
:1005D000D106E206F306E0F042A353A364A375A399
:1005E000248D082E000C990B820F911D27FD9A95E2
:1005F000089668E070E00E940F03848F682FCF0197
:100600001F910F91FF90EF90DF90CF900C94E3013A
:100610001F910F91FF90EF90DF90CF90089597FB7F
:10062000072E16F4009407D077FD09D00E9423030B
:1006300007FC05D03EF4909581959F4F08957095E5
:1006400061957F4F0895AA1BBB1B51E107C0AA1FEC
:10065000BB1FA617B70710F0A61BB70B881F991F63
:100660005A95A9F780959095BC01CD0108950E94F7
:10067000DD0308F481E008950E9450030C941804EF
:100680000E94110458F00E940A0440F029F45F3FD0
:1006900029F00C94010451110C944C040C9407049F
:1006A0000E94290468F39923B1F3552391F3951B14
:1006B000550BBB27AA2762177307840738F09F5F83
:1006C0005F4F220F331F441FAA1FA9F335D00E2EF0
:1006D0003AF0E0E832D091505040E695001CCAF75D
:1006E0002BD0FE2F29D0660F771F881FBB1F261720
:1006F00037074807AB07B0E809F0BB0B802DBF01F7
:10070000FF2793585F4F3AF09E3F510578F00C94C5
:1007100001040C944C045F3FE4F3983ED4F38695B7
:1007200077956795B795F7959F5FC9F7880F911DE6
:100730009695879597F90895E1E0660F771F881FD2
:10074000BB1F621773078407BA0720F0621B730B85
:10075000840BBA0BEE1F88F7E09508950E943104D0
:1007600088F09F5798F0B92F9927B751B0F0E1F072
:10077000660F771F881F991F1AF0BA95C9F714C022
:10078000B13091F00E944B04B1E008950C944B04F9
:10079000672F782F8827B85F39F0B93FCCF386955B
:1007A00077956795B395D9F73EF4909580957095B8
:1007B00061957F4F8F4F9F4F0895990F0008550FF8
:1007C000AA0BE0E8FEEF16161706E807F907C0F0D7
:1007D00012161306E407F50798F0621B730B840BDF
:1007E000950B39F40A2661F0232B242B252B21F4B9
:1007F00008950A2609F4A140A6958FEF811D811D59
:10080000089597F99F6780E870E060E008959FEF92
:1008100080EC089500240A94161617061806090697
:10082000089500240A941216130614060506089566
:10083000092E0394000C11F4882352F0BB0F40F4EE
:10084000BF2B11F460FF04C06F5F7F4F8F4F9F4F2E
:10085000089557FD9058440F551F59F05F3F71F0B0
:100860004795880F97FB991F61F09F3F79F0879517
:100870000895121613061406551FF2CF4695F1DFA0
:1008800008C0161617061806991FF1CF8695710530
:10089000610508940895E894BB2766277727CB0164
:1008A00097F908950E94DD0308F48FEF0895F894F6
:0208B000FFCF78
:1008B2002A002B002900052A002B002900032A0008
:1008C2002B002900042A002B0029000227002800FF
:1008D2002600032700280026000127002800260002
:1008E200022700280026000001000000010100008C
:1008F20000010000000101000000010000000101F0
:080902000000000101000001EA
:00000001FF
