:100000000C94CF000C94EC000C94EC000C94EC00DD
:100010000C94EC000C94EC000C94EC000C94EC00B0
:100020000C94EC000C94EC000C94EC000C94EC00A0
:100030000C94EC000C94EC000C94EE000C94EC008E
:100040000C94EC000C94EC000C94EC000C94EC0080
:100050000C94EC000C94EC000C94EC000C94EC0070
:100060000C94EC000C94EC004E414E494E4954590E
:10007000494E46CDCCCC3D0AD7233C17B7D1387773
:10008000CC2B329595E6241FB14F0A000020410089
:1000900000C84200401C4620BCBE4CCA1B0E5AAED3
:1000A000C59D7400407A10F35A00A0724E180900E2
:1000B00010A5D4E80000E87648170000E40B5402CD
:1000C0000000CA9A3B000000E1F505000080969808
:1000D00000000040420F000000A086010000001058
:1000E0002700000000E8030000000064000000009A
:1000F000000A00000000000100000000002C76D87B
:1001000088DC674F0823DFC1DFAE59E1B1B796E560
:10011000E3E453C63AE651997696E8E6C28426EBC4
:10012000898C9B62ED407C6FFCEFBC9C9F40F2BAD7
:10013000A56FA5F490055A2AF75C936B6CF9676D6F
:10014000C11BFCE0E40D47FEF520E6B500D0ED90C4
:100150002E0300943577050080841E080000204E91
:100160000A000000C80C333333330F986E1283112A
:1001700041EF8D2114893BE65516CFFEE6DB18D101
:10018000844B381BF77C1D901DA4BBE424203284D3
:10019000725E228100C9F124ECA1E53D2700112403
:1001A0001FBECFEFD8E0DEBFCDBF11E0A0E0B1E0D1
:1001B000ECE8FEE102C005900D92A435B107D9F735
:1001C00021E0A4E5B1E001C01D92AE3AB207E1F72B
:1001D0000E9413010C94440F0C9400001F920F9284
:1001E0000FB60F9211248F939F93AF93BF9380917B
:1001F000540190915501A0915601B091570101967B
:10020000A11DB11D8093540190935501A0935601F7
:10021000B0935701BF91AF919F918F910F900FBEF7
:100220000F901F901895CF93DF93CDB7DEB7C054D2
:10023000D1090FB6F894DEBF0FBECDBF60E072ECFF
:1002400081E090E00E94E8040E946F0582E084BD96
:1002500093E095BD99EF97BD80936E00789499EEE9
:10026000C92E97E0D92E27E0E22E06E122E045E1F3
:1002700065E080E00E9437060E941807811109C0DE
:1002800080E091E00E94100580E291E00E9410055C
:10029000FFCF8AB1806C8AB984B18F6084B990E055
:1002A00080E001968938F3E19F0709F079C384EF74
:1002B00091E00E943D078AE0882E912CA12CB12C60
:1002C0000E94A506C0907401D0907501E09076015F
:1002D000F0907701C701B6010E94DC099B01AC01D7
:1002E000C701B6010E942809811127C0409058011A
:1002F0005090590160905A0170905B0120E030E00D
:1003000048EC52E4C701B6010E94A90AA701960170
:1003100018160CF04CC360E070E084EB93E40E948C
:10032000BB08A30192010E94BC0860935C0170931A
:100330005D0180935E0190935F010E941007682F1A
:1003400070E090E080E00E949F09609388017093C4
:10035000890180938A0190938B010E941307BC014D
:1003600090E080E00E949F09609384017093850172
:1003700080938601909387010E940D07682F70E09B
:1003800090E080E00E949F0960938001709381015A
:1003900080938201909383010E940707682F70E089
:1003A00090E080E00E949F0960937C0170937D0142
:1003B00080937E0190937F010E940A07682F70E06E
:1003C00090E080E00E949F0960937801709379012A
:1003D00080937A0190937B010E940407182F40902C
:1003E00078015090790160907A0170907B0120E053
:1003F00030E04AEF54E4609184017091850180916E
:100400008601909187010E94BB0820E03FE946EBFE
:1004100053E40E94AE0A6B017C0120E030E040E82A
:100420005FE3609188017091890180918A019091C8
:100430008B010E94BB082BEA3EE743EF51E40E9488
:10044000AE0A9B01AC01C701B6010E94BC086B015A
:100450007C0120E030E040E85FE360918001709132
:10046000810180918201909183010E94BB089B01D0
:10047000AC01C701B6010E94BC086B017C0120E001
:1004800030E040EC51E4C301B2010E942D099B0110
:10049000AC01C701B6010E94BC082DE533E54CE76D
:1004A0005FE30E94AE0A25E83BEE48EC52E40E946E
:1004B000BC0828E333E946EE52E40E94BB086B0116
:1004C0007C0120E030E040E752E460917C017091D3
:1004D0007D0180917E0190917F010E942D09A301F1
:1004E00092010E94BC082B013C01612F70E090E05A
:1004F00080E00E949F0920E030E041E655E40E9440
:100500002D099B01AC01C301B2010E94BC0820E08F
:1005100030E040E751E40E94AE0A9B01AC01C70104
:10052000B6010E94BC086B017C0120E030E044EB86
:1005300053E40E942D090E94DC0920E030E044EBE6
:1005400053E40E94AE0A9B01AC01C701B6010E94B0
:10055000BB0860937401709375018093760190934A
:10056000770120E030E040E751E40E942D096093DC
:1005700070017093710180937201909373010E94D6
:100580003D058823B9F160E470E0CE0101960E9438
:100590004A056CE270E0CE0101960E943D0B009787
:1005A00049F1FC011192CF010E94390B9B01AC0172
:1005B00060E070E084EB92E40E94BB08609360010D
:1005C000709361018093620190936301CE01019663
:1005D0000E94390B60935C0170935D0180935E0112
:1005E00090935F01609358017093590180935A0171
:1005F00090935B0120E030E048EC52E460916801A8
:100600007091690180916A0190916B010E94AE0A1C
:100610000E94DC096B017C0120E030E048EC52E4F0
:10062000609160017091610180916201909163011C
:100630000E94AE0A0E94DC092B013C0120E030E060
:1006400048EC52E4C701B6010E942D096B017C0100
:1006500020E030E048EC52E4C301B2010E942D09D1
:100660009B01AC01C701B6010E9428098111A4C1F8
:100670005F9A20E030E048EC52E4609168017091AC
:10068000690180916A0190916B010E94AE0A0E94FB
:10069000DC096B017C0120E030E048EC52E4609121
:1006A00060017091610180916201909163010E94EB
:1006B000AE0A0E94DC099B01AC01C701B6010E9491
:1006C000280987FF7BC1289A20E030E048EC52E4FB
:1006D000609168017091690180916A0190916B014C
:1006E0000E94AE0A0E94DC096B017C0120E030E030
:1006F00048EC52E460916001709161018091620167
:10070000909163010E94AE0A0E94DC099B01AC013A
:10071000C701B6010E94A90A18160CF051C15E9AD1
:1007200020E030E048EC52E4609164017091650192
:1007300080916601909167010E94AE0A0E94DC09D7
:100740006B017C0120E030E048EC52E460915C01F8
:1007500070915D0180915E0190915F010E94AE0AEF
:100760000E94DC099B01AC01C701B6010E94280967
:10077000811128C12A9A20E030E048EC52E46091CF
:1007800064017091650180916601909167010E94FA
:10079000AE0A0E94DC096B017C0120E030E048ECED
:1007A00052E460915C0170915D0180915E019091D5
:1007B0005F010E94AE0A0E94DC099B01AC01C701E7
:1007C000B6010E94280987FFFFC02B9A20E030E085
:1007D00048EC52E46091640170916501809166017A
:1007E000909167010E94AE0A0E94DC096B017C01B6
:1007F00020E030E048EC52E460915C0170915D01D2
:1008000080915E0190915F010E94AE0A0E94DC0916
:100810009B01AC01C701B6010E94A90A18160CF091
:10082000D5C0299AF8948091540190915501A091D6
:100830005601B0915701789480936C0190936D01AB
:10084000A0936E01B0936F010E94ED078823E1F140
:100850000E947B086B017C010E9484082AE037ED2E
:1008600043E25CE30E94AE0A9B01AC01609164012B
:100870007091650180916601909167010E94BC08AA
:1008800060936401709365018093660190936701A2
:100890002AE037ED43E25CE3C701B6010E94AE0AED
:1008A0009B01AC01609168017091690180916A01BE
:1008B00090916B010E94BC0860936801709369017C
:1008C00080936A0190936B0189E291E00E94040594
:1008D000609164017091650180916601909167015A
:1008E00044E00E94370580E391E00E940405609196
:1008F00068017091690180916A0190916B0144E0F7
:100900000E94370589E391E00E940405609174011B
:1009100070917501809176019091770144E00E9479
:10092000370586E491E00E940405609170017091A2
:100930007101809172019091730144E00E9437052A
:10094000F8948091540190915501A0915601B09175
:100950005701789440916C0150916D0160916E0146
:1009600070916F01841B950BA60BB70B8A30910514
:10097000A105B10508F0A4CCA5019401281B390BF1
:100980004A0B5B0BDA01C9010197A109B10908F40F
:1009900097CCEFE9FFE03197F1F700C00000F4CF0A
:1009A000EFE9FFE03197F1F700C000007ACCC30116
:1009B000B2010E94BB08B9CC5F985BCE289884CE68
:1009C0005E98AECE2A98D7CE2B9800CF29982ACF02
:1009D0009B01AC0160E472E48FE090E00E94990812
:1009E000215031093093C5002093C40088E18093E1
:1009F000C10086E08093C20008959091C00095FFE9
:100A0000FCCF8093C6000895CF93DF93EC018991CA
:100A1000811103C0DF91CF9108950E94FD04F7CFAB
:100A20000E94040581E591E00C9404050F931F9347
:100A3000CF93DF93CDB7DEB7A0970FB6F894DEBFA4
:100A40000FBECDBF242F8E010F5F1F4F40E00E94CD
:100A50001B0BC8010E940405A0960FB6F894DEBFD8
:100A60000FBECDBFDF91CF911F910F9108950E94CE
:100A7000160581E591E00C9404058091C000881F63
:100A80008827881F08958091C00087FFFCCF809140
:100A9000C6000895EF92FF920F931F93CF93DF93B9
:100AA0008C01D0E0C0E07B0181E0E81AF108CE15AE
:100AB000DF0550F0F8011082CE01DF91CF911F9138
:100AC0000F91FF90EF9008950E9443058A3091F3B3
:100AD0008D3081F32196F80181938F01E8CF109238
:100AE000B90088E48093B80084E08093BC00089546
:100AF00094EA9093BC009091BC0097FFFCCF90913A
:100B0000B900987F983021F0903111F081E008957C
:100B10008093BB0084E88093BC008091BC0087FF79
:100B2000FCCF8091B900887F883111F0803471F753
:100B300080E0089584E98093BC008091BC0084FD2E
:100B4000FCCF08958093BB0084E88093BC00809123
:100B5000BC0087FFFCCF9091B900987F81E098326C
:100B600009F480E0089584EC8093BC008091BC007F
:100B700087FFFCCF8091BB00089584E88093BC0080
:100B80008091BC0087FFFCCF8091BB000895CF937C
:100B9000DF93D62FC42F880F0E947805882339F061
:100BA0000E949A05C1E08C2FDF91CF9108958D2F7F
:100BB0000E94A2058111F4CF8C2F0E94A205C82F9C
:100BC0008111EECF0E949A05EECFAF92BF92DF92D5
:100BD000EF92FF920F931F93CF93DF93F62EB42ED5
:100BE000052F122FC82FD0E0CC0FDD1F8C2F0E94B5
:100BF0007805882379F00E949A05DD24D3948D2D01
:100C0000DF91CF911F910F91FF90EF90DF90BF90F8
:100C1000AF9008958F2D0E94A2058111ECCF8C2FEB
:100C200081600E947805D82E8111E5CFEB2CF02E43
:100C3000C12FD0E010E000E05E0181E0A81AB10809
:100C40000C171D0719F40E949A05D9CFA016B106FA
:100C500041F40E94BD05F70181937F010F5F1F4F93
:100C6000EFCF0E94B305F7CF21E00C94E505CF92BA
:100C7000EF92FF920F931F93CF93DF9300D000D09A
:100C800000D01F92CDB7DEB7562F3AE0632F0E94F7
:100C90008D08E0E18E9FB0011124962B9983852F5A
:100CA000632F0E948D08F0E18F9FB0011124962BD5
:100CB0009A83842F632F0E948D0860E1869FA00194
:100CC0001124942B9B83822F632F0E948D08E0E1D7
:100CD0008E9FA0011124942B9C83802F0E948D084D
:100CE000F0E18F9FA0011124942B9D838E2D0E94F3
:100CF0008D0820E1829FA0011124942B9E8380E324
:100D00008C0D0E948D0840E1849F90011124922B4C
:100D10009F83CE0101967C0110E0F70141917F0194
:100D2000612F88E60E94C7051F5F1730B1F727962D
:100D30000FB6F894DEBF0FBECDBFDF91CF911F91EC
:100D40000F91FF90EF90CF900895CF93DF9300D055
:100D500000D000D01F92CDB7DEB727E0AE014F5FC5
:100D60005F4F60E088E60E94E5058981282F229583
:100D700027709AE08F70299F800D11248093930132
:100D80008A81282F229527708F70299F800D11242A
:100D9000809392018B81282F229523708F70299F39
:100DA000800D1124809391018C81877080938E0136
:100DB0008D81282F229523708F70299F800D1124FB
:100DC000809390018E8184FB222720F98F70299FC8
:100DD000800D112480938F018F81282F22952F70F1
:100DE0008F70299F800D112490E08053984F90932D
:100DF0008D0180938C0127960FB6F894DEBF0FBE4D
:100E0000CDBFDF91CF910895809193010895809196
:100E10009201089580919101089580919001089523
:100E200080918F01089580918C0190918D0108959A
:100E3000CF93DF931F92CDB7DEB71982AE014F5F1C
:100E40005F4F65E788E60E943406882311F090E042
:100E50000FC040E06BE688E60E94C7058111F7CF1E
:100E600040E06BE188E60E94C70591E08111EFCF79
:100E7000892F0F90DF91CF9108954F925F926F92DB
:100E80007F928F929F92AF92BF92CF92DF92EF921A
:100E9000FF92CF93DF93CDB7DEB72A970FB6F894C2
:100EA000DEBF0FBECDBF6C01F12CE12C1F82188676
:100EB00019861A86812C912C5401412C512C320117
:100EC000EC14FD0409F04EC0B70190E080E00E94F0
:100ED0009F096B017C01C301B2010E94A109A70116
:100EE00096010E942D096093A8017093A901809337
:100EF000AA019093AB01C501B4010E94A109A70109
:100F000096010E942D096093A4017093A50180931E
:100F1000A6019093A7016F81788589859A850E94A3
:100F2000A109A70196010E942D096093A001709369
:100F3000A1018093A2019093A3012A960FB6F89481
:100F4000DEBF0FBECDBFDF91CF91FF90EF90DF905E
:100F5000CF90BF90AF909F908F907F906F905F9059
:100F60004F90089526E0AE014F5F5F4F63E488E63F
:100F70000E94E50589819A81982789279827092E5B
:100F8000000CAA0BBB0B480E591E6A1E7B1E8B81E0
:100F90009C81982789279827092E000CAA0BBB0B48
:100FA000880E991EAA1EBB1E8D819E8198278927B7
:100FB0009827092E000CAA0BBB0B2F813885498579
:100FC0005A85280F391F4A1F5B1F2F83388749878F
:100FD0005A873FEFE31AF30A73CFEF92FF920F9312
:100FE0001F93CF93DF9300D000D000D0CDB7DEB7F2
:100FF00026E0AE014F5F5F4F63E488E60E94E5059F
:10100000811177C0EB80FC80FE24EF24FE240D814B
:101010001E8110270127102769817A81762767278B
:101020007627072E000C880B990B0E94A1092091AE
:10103000A8013091A9014091AA015091AB010E94F1
:10104000BB0820E030E043E053E40E942D096093A8
:101050009C0170939D0180939E0190939F01B70125
:10106000FF0C880B990B0E94A1092091A4013091DB
:10107000A5014091A6015091A7010E94BB0820E064
:1010800030E043E053E40E942D096093980170938F
:10109000990180939A0190939B01B801110F880BDD
:1010A000990B0E94A1092091A0013091A1014091CA
:1010B000A2015091A3010E94BB0820E030E043E070
:1010C00053E40E942D0960939401709395018093DD
:1010D00096019093970181E026960FB6F894DEBFB3
:1010E0000FBECDBFDF91CF911F910F91FF90EF9079
:1010F000089580E0F1CF60919C0170919D018091F5
:101100009E0190919F0108956091980170919901BD
:1011100080919A0190919B010895991B79E004C0F8
:10112000991F961708F0961B881F7A95C9F7809526
:101130000895A1E21A2EAA1BBB1BFD010DC0AA1F18
:10114000BB1FEE1FFF1FA217B307E407F50720F030
:10115000A21BB30BE40BF50B661F771F881F991FAB
:101160001A9469F760957095809590959B01AC01F4
:10117000BD01CF0108955058BB27AA270E94D3086C
:101180000C94570A0E94490A38F00E94500A20F035
:1011900039F49F3F19F426F40C94460A0EF4E095B6
:1011A000E7FB0C94170AE92F0E94680A58F3BA1754
:1011B000620773078407950720F079F4A6F50C946D
:1011C000A20A0EF4E0950B2EBA2FA02D0B01B90147
:1011D00090010C01CA01A0011124FF27591B99F0AD
:1011E000593F50F4503E68F11A16F040A22F232FB9
:1011F000342F4427585FF3CF469537952795A79509
:10120000F0405395C9F77EF41F16BA0B620B730BAF
:10121000840BBAF09150A1F0FF0FBB1F661F771F20
:10122000881FC2F70EC0BA0F621F731F841F48F4D5
:10123000879577956795B795F7959E3F08F0B0CF5E
:101240009395880F08F09927EE0F97958795089545
:101250000E94F30908F481E008950E9441090C946A
:10126000570A0E94500A58F00E94490A40F029F497
:101270005F3F29F00C94170A51110C94A30A0C94A7
:10128000460A0E94680A68F39923B1F3552391F343
:10129000951B550BBB27AA2762177307840738F0E5
:1012A0009F5F5F4F220F331F441FAA1FA9F335D042
:1012B0000E2E3AF0E0E832D091505040E695001CF6
:1012C000CAF72BD0FE2F29D0660F771F881FBB1FB0
:1012D000261737074807AB07B0E809F0BB0B802D8E
:1012E000BF01FF2793585F4F3AF09E3F510578F0BA
:1012F0000C94170A0C94A30A5F3FE4F3983ED4F3CE
:10130000869577956795B795F7959F5FC9F7880F8D
:10131000911D9695879597F90895E1E0660F771FDF
:10132000881FBB1F621773078407BA0720F0621B70
:10133000730B840BBA0BEE1F88F7E0950895E894C1
:1013400009C097FB3EF490958095709561957F4F0D
:101350008F4F9F4F9923A9F0F92F96E9BB279395BB
:10136000F695879577956795B795F111F8CFFAF4CB
:10137000BB0F11F460FF1BC06F5F7F4F8F4F9F4FFC
:1013800016C0882311F096E911C0772321F09EE85A
:10139000872F762F05C0662371F096E8862F70E0C0
:1013A00060E02AF09A95660F771F881FDAF7880F9A
:1013B0009695879597F908950E948A0A90F09F372D
:1013C00048F4911116F00C94A30A60E070E080E8F4
:1013D0009FEB089526F41B16611D711D811D0C9451
:1013E0001D0A0C94380A990F0008550FAA0BE0E863
:1013F000FEEF16161706E807F907C0F012161306D7
:10140000E407F50798F0621B730B840B950B39F416
:101410000A2661F0232B242B252B21F408950A267C
:1014200009F4A140A6958FEF811D811D089597F9BC
:101430009F6780E870E060E00895882371F4772367
:1014400021F09850872B762F07C0662311F4992737
:101450000DC09051862B70E060E02AF09A95660FDF
:10146000771F881FDAF7880F9695879597F9089563
:101470009F3F31F0915020F4879577956795B79508
:10148000880F911D9695879597F908959FEF80ECA9
:10149000089500240A9416161706180609060895DA
:1014A00000240A9412161306140605060895092E40
:1014B0000394000C11F4882352F0BB0F40F4BF2BAF
:1014C00011F460FF04C06F5F7F4F8F4F9F4F0895EF
:1014D00057FD9058440F551F59F05F3F71F04795E5
:1014E000880F97FB991F61F09F3F79F087950895CA
:1014F000121613061406551FF2CF4695F1DF08C0E9
:10150000161617061806991FF1CF86957105610505
:10151000089408950E94700AA0F0BEE7B91788F4F5
:10152000BB279F3860F41616B11D672F782F8827C8
:10153000985FF7CF869577956795B11D9395963906
:10154000C8F30895E894BB2766277727CB0197F95E
:1015500008950E94F30908F48FEF08950E94C10ACC
:101560000C94570A0E94490A38F00E94500A20F051
:10157000952311F00C94170A0C94460A11240C942C
:10158000A30A0E94680A70F3959FC1F3950F50E07B
:10159000551F629FF001729FBB27F00DB11D639F25
:1015A000AA27F00DB11DAA1F649F6627B00DA11DCB
:1015B000661F829F2227B00DA11D621F739FB00D71
:1015C000A11D621F839FA00D611D221F749F3327E1
:1015D000A00D611D231F849F600D211D822F762F7A
:1015E0006A2F11249F5750409AF0F1F088234AF057
:1015F000EE0FFF1FBB1F661F771F881F91505040C3
:10160000A9F79E3F510580F00C94170A0C94A30A89
:101610005F3FE4F3983ED4F3869577956795B79549
:10162000F795E7959F5FC1F7FE2B880F911D969563
:10163000879597F90895EF920F931F93CF93DF93B8
:10164000E80134E047FD34E1042E000C550B57FF50
:1016500003C0519541955109E32E022F242FAE016D
:101660000E94480BCE01DF91CF911F910F91EF9017
:101670000895662777270C94A70CFC0181918617A3
:1016800021F08823D9F7992708953197CF0108953C
:10169000A9E0B0E0EEE4FBE00C94040F6A01F22E46
:1016A000B02E102FFBE3AF2EA01608F41BE31F5F34
:1016B000012F27E0AE014F5F5F4F0E94F70DBC0185
:1016C0008981982F9970913009F43FC09BE2E1FC29
:1016D00004C09E2D9170E0FC3AC05E2D5071E82F41
:1016E000E87083FF46C084E0911101C083E0EF2DD4
:1016F000E81B8F1508F0E0E0D6018E2F20E255237D
:1017000051F1992329F0D6019C93C60101966C01F1
:1017100096012D5F3F4FE2FE24C08EE4D6018C93EC
:1017200091E411969C93119712968C93D9018E2F68
:1017300090E281111BC0E20FF32FF11D10828EEF9A
:101740009FEF2996ECE00C94200F9DE2C6CF90E22B
:10175000C4CF2D9381508111FCCFCE0ED11CE0E07F
:10176000D0CF8EE6D6018C9391E6DBCF9D9381504E
:10177000E0CF482F447082FF3DC084E0911101C04A
:1017800083E08F1510F4EF2DE81BD6018E2F20E299
:10179000552309F1992329F0D6019C93C60101969E
:1017A0006C0196012D5F3F4FE2FE1BC089E4D6011C
:1017B0008C938EE411968C93119786E412968C93F9
:1017C000D9018E2F90E2882309F4B5CF9D938150E3
:1017D000FACF2D9381508111FCCFCE0ED11CE0E0C9
:1017E000D9CF89E6D6018C938EE611968C9311970A
:1017F00086E6E4CF9B0177FF02C030E020E0A1E065
:10180000B0E0911102C0B0E0A0E0F9013196AE0F56
:10181000BF1F8B2C912CBB2009F461C05401EFEF4A
:10182000AE1ABE0AAA0DBB1DFA161B0619F014F05B
:101830004F2D4A1B511188C0E3FC59C07601A42FDB
:10184000B0E2A1114FC0C40ED11C992309F45BC0B2
:1018500040E0D6011196F60190836D01552309F4FD
:1018600048C0012F060F9A81582F507184FF03C082
:10187000913309F4015010160CF047C0093008F0FC
:1018800008E0EEE2FE2E5B01A01AB10885019194FA
:10189000819491082F3F320729F4D601FC92F6017A
:1018A00031966F016217730794F1021713077CF5E5
:1018B000DB01A21BB30BAA24A394B12CAC0EBD1E5A
:1018C000AA0DBB1D11968C9121503109D60111969C
:1018D00028153905F4F0F60180836D01DBCFB12CBA
:1018E000A12CA0CFF701B1937F01A150AACF9111F4
:1018F000B0CFD601942F50E302C05D939150911167
:10190000FCCFC40ED11C40E0ACCF01E0BACF80E3E5
:10191000DBCF6217730731F4963388F4953311F4F3
:10192000552369F0F6018083FD01842F90E2811137
:1019300008C0A40FB11D1C9290E080E002CF81E3AB
:10194000F1CF91938150F3CF911183CF8ACFB0E043
:10195000A0E0EDEAFCE00C94040F5C017B01611552
:10196000710519F0DB018D939C9385010F5F1F4F6B
:10197000F501D0818D2F90E00E94CF0E6C01892B54
:10198000B9F5DD32B9F50F5F1F4FD5011196DC9126
:10199000C1E05801F1E0AF1AB10843E050E060E760
:1019A00070E0C5010E94D80E892B69F5680182E0BC
:1019B000C80ED11C45E050E06BE670E0C6010E9405
:1019C000D80E892B21F4680197E0C90ED11CE114CF
:1019D000F10419F0D701CD92DC9260E070E080E86C
:1019E0009FEFC111FFC060E070E080E89FE7FAC0A0
:1019F0005801BBCFDB3229F485010E5F1F4FF50183
:101A0000D181C0E0C6CF43E050E068E670E0C50198
:101A10000E94D80E892BE9F0F80110E000E020E0E8
:101A200030E0A9015F01B0ED8B2E8D0E89E08815A5
:101A3000C8F19C2E689491F88C2F8870C2FF16C054
:101A4000811102C00F5F1F4F3196D501DC91C92D66
:101A5000E9CFE114F10429F00E5F1F4FF701118364
:101A6000008360E070E080EC9FE7BCC0882311F049
:101A700001501109A5E0B0E00E94F30E9B01AC01FA
:101A8000220F331F441F551F280D311D411D511DAD
:101A9000283999E93907490799E15907A8F2C66039
:101AA0009C2ED2CFAEEF8A1206C0C3FD3CC09C2E46
:101AB000689493F8C9CFDF7DD534A9F580818D3244
:101AC00039F4C061DF011296818162E070E006C0E6
:101AD000DF018B32C1F3119661E070E080535D014C
:101AE000A61AB70A8A30F8F4E0E8CE16ECE0DE0673
:101AF0005CF4B601660F771F660F771FC60ED71E00
:101B0000CC0CDD1CC80ED11C5D01FFEFAF1ABF0A63
:101B10008C9180538A30A8F1C4FF03C0D194C19442
:101B2000D1080C0D1D1DC1FF09C0E114F10431F0F5
:101B300081E0A81AB108D701AD92BC92CA01B901DF
:101B40000E949F09C370C33009F490584B015C0197
:101B500020E030E0A9010E942809882309F440C050
:101B6000CFE9D0E017FF05C0119501951109C7E82D
:101B7000D0E06E01B8E1CB1AD10880E2E82EF12C5A
:101B80000FC0D501B1CFFE012591359145915491FA
:101B90000E191F09C501B4010E94AE0A4B015C0178
:101BA000D501C4010E151F0574F72497F594E79429
:101BB000CC16DD06A9F78A2F880F8B2F881F8F3F41
:101BC00049F020E030E0A901C501B4010E942809D4
:101BD000811106C082E290E09093AD018093AC0148
:101BE000C501B401CDB7DEB7ECE00C94200F28306E
:101BF00008F027E03327DA01990F311D87FD916046
:101C000000966105710539F432602E5F3D9330E333
:101C10002A95E1F708959F3F30F0803871056105FE
:101C200009F03C5F3C5F3D93913008F08068911D66
:101C3000DF93CF931F930F93FF92EF92192F987F0B
:101C40009695E92F96959695E90FFF27E350FF4F5C
:101C500099273327EE24FF24A701E7010590089474
:101C6000079428F4360FE71EF81E491F511D660F12
:101C7000771F881F991F0694A1F70590079428F4F1
:101C8000E70EF81E491F561FC11D770F881F991FA9
:101C9000661F0694A1F70590079428F4F80E491FD3
:101CA000561FC71FD11D880F991F661F771F0694E7
:101CB000A1F70590079420F4490F561FC71FD81F9E
:101CC000990F661F771F881F0694A9F784911095B6
:101CD000177041F0D695C79557954795F794E794B7
:101CE0001A95C1F7E3EAF0E06894159015913591E3
:101CF0006591959105907FE27395E118F10A430B88
:101D0000560BC90BD009C0F7E10CF11E431F561F3B
:101D1000C91FD01D7EF4703311F48A95E6CFE89484
:101D2000015030F0080F0AF40027021708F4202FA2
:101D30002395022F7A3328F079E37D932A95E9F7EA
:101D400010C07D932A9589F60694979567953795E7
:101D500017951794E118F10A430B560BC90BD009DC
:101D600098F023957E9173957A3308F070E37C9315
:101D70002013B8F77E9170617D9330F0839571E305
:101D80007D9370E32A95E1F71124EF90FF900F9176
:101D90001F91CF91DF91992787FD9095089591111B
:101DA0000C94F00E803219F089508550C8F70895D0
:101DB000FB01DC014150504088F08D9181341CF0D2
:101DC0008B350CF4805E659161341CF06B350CF43E
:101DD000605E861B611171F3990B0895881BFCCF1F
:101DE0009927882708950E94350FA59F900DB49FCD
:101DF000900DA49F800D911D112408952F923F9264
:101E00004F925F926F927F928F929F92AF92BF920A
:101E1000CF92DF92EF92FF920F931F93CF93DF93B6
:101E2000CDB7DEB7CA1BDB0B0FB6F894DEBF0FBE13
:101E3000CDBF09942A88398848885F846E847D8460
:101E40008C849B84AA84B984C884DF80EE80FD8062
:101E50000C811B81AA81B981CE0FD11D0FB6F894D8
:101E6000DEBF0FBECDBFED010895A29FB001B39FAD
:101E7000C001A39F700D811D1124911DB29F700D93
:0C1E8000811D1124911D0895F894FFCFDE
:101E8C00494D5520696E697469616C697A61746930
:101E9C006F6E20756E7375636365737366756C0016
:101EAC005374617475733A2000596177203D20009A
:101EBC005069746368203D20006C737444656772CC
:101ECC006565733A20006C7374486F7572733A20B1
:041EDC00000D0A00EB
:00000001FF
